{
  "_format": "hh-sol-artifact-1",
  "contractName": "DocumentRegistry",
  "sourceName": "contracts/DocumentRegistry.sol",
  "abi": [
    {
      "anonymous": false,
      "inputs": [
        {
          "indexed": true,
          "internalType": "bytes32",
          "name": "fileHash",
          "type": "bytes32"
        },
        {
          "indexed": false,
          "internalType": "string",
          "name": "fileName",
          "type": "string"
        },
        {
          "indexed": true,
          "internalType": "address",
          "name": "owner",
          "type": "address"
        },
        {
          "indexed": false,
          "internalType": "uint256",
          "name": "uploadedAt",
          "type": "uint256"
        }
      ],
      "name": "DocumentRegistered",
      "type": "event"
    },
    {
      "inputs": [
        {
          "internalType": "uint256",
          "name": "",
          "type": "uint256"
        }
      ],
      "name": "allHashes",
      "outputs": [
        {
          "internalType": "bytes32",
          "name": "",
          "type": "bytes32"
        }
      ],
      "stateMutability": "view",
      "type": "function"
    },
    {
      "inputs": [],
      "name": "getAllDocumentHashes",
      "outputs": [
        {
          "internalType": "bytes32[]",
          "name": "",
          "type": "bytes32[]"
        }
      ],
      "stateMutability": "view",
      "type": "function"
    },
    {
      "inputs": [
        {
          "internalType": "bytes32",
          "name": "",
          "type": "bytes32"
        }
      ],
      "name": "isRegistered",
      "outputs": [
        {
          "internalType": "bool",
          "name": "",
          "type": "bool"
        }
      ],
      "stateMutability": "view",
      "type": "function"
    },
    {
      "inputs": [
        {
          "internalType": "bytes32",
          "name": "_fileHash",
          "type": "bytes32"
        },
        {
          "internalType": "string",
          "name": "_fileName",
          "type": "string"
        },
        {
          "internalType": "string",
          "name": "_description",
          "type": "string"
        }
      ],
      "name": "registerDocument",
      "outputs": [],
      "stateMutability": "nonpayable",
      "type": "function"
    },
    {
      "inputs": [],
      "name": "totalDocuments",
      "outputs": [
        {
          "internalType": "uint256",
          "name": "",
          "type": "uint256"
        }
      ],
      "stateMutability": "view",
      "type": "function"
    },
    {
      "inputs": [
        {
          "internalType": "bytes32",
          "name": "_fileHash",
          "type": "bytes32"
        }
      ],
      "name": "verifyDocument",
      "outputs": [
        {
          "internalType": "bool",
          "name": "exists",
          "type": "bool"
        },
        {
          "internalType": "string",
          "name": "fileName",
          "type": "string"
        },
        {
          "internalType": "string",
          "name": "description",
          "type": "string"
        },
        {
          "internalType": "uint256",
          "name": "uploadedAt",
          "type": "uint256"
        },
        {
          "internalType": "address",
          "name": "owner",
          "type": "address"
        }
      ],
      "stateMutability": "view",
      "type": "function"
    }
  ],
  "bytecode": "0x608060405234801561001057600080fd5b50610fb6806100206000396000f3fe608060405234801561001057600080fd5b50600436106100625760003560e01c806327258b2214610067578063313ef09614610097578063444f7e4b146100c7578063553181ec146100e557806378af6c4d14610103578063fe35089f1461011f575b600080fd5b610081600480360381019061007c91906106ae565b610153565b60405161008e91906106f6565b60405180910390f35b6100b160048036038101906100ac9190610747565b610173565b6040516100be9190610783565b60405180910390f35b6100cf610197565b6040516100dc919061085c565b60405180910390f35b6100ed6101ef565b6040516100fa919061088d565b60405180910390f35b61011d600480360381019061011891906109ee565b6101fc565b005b610139600480360381019061013491906106ae565b610425565b60405161014a959493929190610b39565b60405180910390f35b60016020528060005260406000206000915054906101000a900460ff1681565b6002818154811061018357600080fd5b906000526020600020016000915090505481565b606060028054806020026020016040519081016040528092919081815260200182805480156101e557602002820191906000526020600020905b8154815260200190600101908083116101d1575b5050505050905090565b6000600280549050905090565b6000801b8303610241576040517f08c379a000000000000000000000000000000000000000000000000000000000815260040161023890610be6565b60405180910390fd5b6001600084815260200190815260200160002060009054906101000a900460ff16156102a2576040517f08c379a000000000000000000000000000000000000000000000000000000000815260040161029990610c52565b60405180910390fd5b6040518060a001604052808481526020018381526020018281526020014281526020013373ffffffffffffffffffffffffffffffffffffffff168152506000808581526020019081526020016000206000820151816000015560208201518160010190816103109190610e7e565b5060408201518160020190816103269190610e7e565b506060820151816003015560808201518160040160006101000a81548173ffffffffffffffffffffffffffffffffffffffff021916908373ffffffffffffffffffffffffffffffffffffffff160217905550905050600180600085815260200190815260200160002060006101000a81548160ff02191690831515021790555060028390806001815401808255809150506001900390600052602060002001600090919091909150553373ffffffffffffffffffffffffffffffffffffffff16837f4c9313acc7e3e657666e9ed0b3a9cad371a8b196293ff8df92e278eb16b5ab568442604051610418929190610f50565b60405180910390a3505050565b60006060806000806001600087815260200190815260200160002060009054906101000a900460ff1661048a5760008060006040518060200160405280600081525091906040518060200160405280600081525091909450945094509450945061065b565b60008060008881526020019081526020016000206040518060a0016040529081600082015481526020016001820180546104c390610ca1565b80601f01602080910402602001604051908101604052809291908181526020018280546104ef90610ca1565b801561053c5780601f106105115761010080835404028352916020019161053c565b820191906000526020600020905b81548152906001019060200180831161051f57829003601f168201915b5050505050815260200160028201805461055590610ca1565b80601f016020809104026020016040519081016040528092919081815260200182805461058190610ca1565b80156105ce5780601f106105a3576101008083540402835291602001916105ce565b820191906000526020600020905b8154815290600101906020018083116105b157829003601f168201915b50505050508152602001600382015481526020016004820160009054906101000a900473ffffffffffffffffffffffffffffffffffffffff1673ffffffffffffffffffffffffffffffffffffffff1673ffffffffffffffffffffffffffffffffffffffff168152505090506001816020015182604001518360600151846080015195509550955095509550505b91939590929450565b6000604051905090565b600080fd5b600080fd5b6000819050919050565b61068b81610678565b811461069657600080fd5b50565b6000813590506106a881610682565b92915050565b6000602082840312156106c4576106c361066e565b5b60006106d284828501610699565b91505092915050565b60008115159050919050565b6106f0816106db565b82525050565b600060208201905061070b60008301846106e7565b92915050565b6000819050919050565b61072481610711565b811461072f57600080fd5b50565b6000813590506107418161071b565b92915050565b60006020828403121561075d5761075c61066e565b5b600061076b84828501610732565b91505092915050565b61077d81610678565b82525050565b60006020820190506107986000830184610774565b92915050565b600081519050919050565b600082825260208201905092915050565b6000819050602082019050919050565b6107d381610678565b82525050565b60006107e583836107ca565b60208301905092915050565b6000602082019050919050565b60006108098261079e565b61081381856107a9565b935061081e836107ba565b8060005b8381101561084f57815161083688826107d9565b9750610841836107f1565b925050600181019050610822565b5085935050505092915050565b6000602082019050818103600083015261087681846107fe565b905092915050565b61088781610711565b82525050565b60006020820190506108a2600083018461087e565b92915050565b600080fd5b600080fd5b6000601f19601f8301169050919050565b7f4e487b7100000000000000000000000000000000000000000000000000000000600052604160045260246000fd5b6108fb826108b2565b810181811067ffffffffffffffff8211171561091a576109196108c3565b5b80604052505050565b600061092d610664565b905061093982826108f2565b919050565b600067ffffffffffffffff821115610959576109586108c3565b5b610962826108b2565b9050602081019050919050565b82818337600083830152505050565b600061099161098c8461093e565b610923565b9050828152602081018484840111156109ad576109ac6108ad565b5b6109b884828561096f565b509392505050565b600082601f8301126109d5576109d46108a8565b5b81356109e584826020860161097e565b91505092915050565b600080600060608486031215610a0757610a0661066e565b5b6000610a1586828701610699565b935050602084013567ffffffffffffffff811115610a3657610a35610673565b5b610a42868287016109c0565b925050604084013567ffffffffffffffff811115610a6357610a62610673565b5b610a6f868287016109c0565b9150509250925092565b600081519050919050565b600082825260208201905092915050565b60005b83811015610ab3578082015181840152602081019050610a98565b60008484015250505050565b6000610aca82610a79565b610ad48185610a84565b9350610ae4818560208601610a95565b610aed816108b2565b840191505092915050565b600073ffffffffffffffffffffffffffffffffffffffff82169050919050565b6000610b2382610af8565b9050919050565b610b3381610b18565b82525050565b600060a082019050610b4e60008301886106e7565b8181036020830152610b608187610abf565b90508181036040830152610b748186610abf565b9050610b83606083018561087e565b610b906080830184610b2a565b9695505050505050565b7f486173682063616e6e6f7420626520656d707479000000000000000000000000600082015250565b6000610bd0601483610a84565b9150610bdb82610b9a565b602082019050919050565b60006020820190508181036000830152610bff81610bc3565b9050919050565b7f446f63756d656e7420616c726561647920726567697374657265640000000000600082015250565b6000610c3c601b83610a84565b9150610c4782610c06565b602082019050919050565b60006020820190508181036000830152610c6b81610c2f565b9050919050565b7f4e487b7100000000000000000000000000000000000000000000000000000000600052602260045260246000fd5b60006002820490506001821680610cb957607f821691505b602082108103610ccc57610ccb610c72565b5b50919050565b60008190508160005260206000209050919050565b60006020601f8301049050919050565b600082821b905092915050565b600060088302610d347fffffffffffffffffffffffffffffffffffffffffffffffffffffffffffffffff82610cf7565b610d3e8683610cf7565b95508019841693508086168417925050509392505050565b6000819050919050565b6000610d7b610d76610d7184610711565b610d56565b610711565b9050919050565b6000819050919050565b610d9583610d60565b610da9610da182610d82565b848454610d04565b825550505050565b600090565b610dbe610db1565b610dc9818484610d8c565b505050565b5b81811015610ded57610de2600082610db6565b600181019050610dcf565b5050565b601f821115610e3257610e0381610cd2565b610e0c84610ce7565b81016020851015610e1b578190505b610e2f610e2785610ce7565b830182610dce565b50505b505050565b600082821c905092915050565b6000610e5560001984600802610e37565b1980831691505092915050565b6000610e6e8383610e44565b9150826002028217905092915050565b610e8782610a79565b67ffffffffffffffff811115610ea057610e9f6108c3565b5b610eaa8254610ca1565b610eb5828285610df1565b600060209050601f831160018114610ee85760008415610ed6578287015190505b610ee08582610e62565b865550610f48565b601f198416610ef686610cd2565b60005b82811015610f1e57848901518255600182019150602085019450602081019050610ef9565b86831015610f3b5784890151610f37601f891682610e44565b8355505b6001600288020188555050505b505050505050565b60006040820190508181036000830152610f6a8185610abf565b9050610f79602083018461087e565b939250505056fea26469706673582212202a7f4a5f211dbc23814af1e92babdb754d0c149f530e4490394493f1fed9945164736f6c63430008180033",
  "linkReferences": {},
  "deployedLinkReferences": {}
}